:103800000C942A1C0C94451C0C94451C0C94451CCF
:103810000C94451C0C94451C0C94451C0C94451CA4
:103820000C94451C0C94451C0C94451C0C94451C94
:103830000C94451C0C94451C0C94451C0C94451C84
:103840000C94451C0C94451C0C94451C0C94451C74
:103850000C94451C11241FBECFE5D4E0DEBFCDBFC4
:1038600010E0A0E6B0E0EEE2FFE302C005900D92AA
:10387000A036B107D9F710E0A0E6B0E001C01D9274
:10388000A53EB107E1F70C94871D0C94001C8F9A9C
:1038900084E083BD89E185BD089581E40E94E21E34
:1038A00086E50E94E21E82E50E94E21E82E40E94FA
:1038B000E21E8FE40E94E21E8FE40E94E21E84E575
:1038C0000E94E21E08958F929F92AF92BF92CF9274
:1038D000DF92EF92FF920F931F93CF93DF936C01D0
:1038E000962EEE24FF2487010E591F4FE7012196E3
:1038F000EC14FD0418F40E94E61E01C08FEFF801DD
:1039000080837E01C038D10570F3EE24FF248091BE
:10391000E400853721F08B3311F0C7018CC0A090F3
:10392000E200B090E300E199FECF8FB6F89426E470
:10393000921609F07DC08091E40087010E591F4F57
:10394000E7012196EEEFFFEFCE0EDF1E8537F1F493
:10395000F8018081282F3327FE01EE59FF4F808127
:103960009927982F8827282B392B7E010894E11C52
:10397000F11C41E08091E2009091E3000901FC011B
:1039800040935700E8951124029628C080E40E94D5
:103990004B1F8091E3000E944B1F8091E2000E9428
:1039A0004B1FF80180810E944B1F88E40E944B1F2F
:1039B0008091E3000E944B1F8091E2000E944B1F08
:1039C0007E010894E11CF11CCE59DF4F88810E94D2
:1039D0004B1F8091E2009091E30001969093E300E9
:1039E0008093E200C114D10409F0A5CF8091E400D6
:1039F000853769F485E0F50180935700E89507B6AF
:103A000000FCFDCF81E180935700E89511C08CE464
:103A10000E944B1F8B2D99270E944B1F8A2D0E94BD
:103A20004B1F80E00E944B1F88E893E10E94F51E27
:103A30008FBE8DE090E0DF91CF911F910F91FF90AD
:103A4000EF90DF90CF90BF90AF909F908F900895B0
:103A5000FF920F931F93CF93DF93EC01FFB6F8947F
:103A6000E199FECF8091E4008537E9F4653409F4EB
:103A700047C060E08091E2009091E3000E94EB1E5D
:103A80008C010E94E21E812F99270E94E21E8091E4
:103A9000E2009091E30002969093E3008093E200AD
:103AA000229739F72DC08B3359F580E20E944B1FC6
:103AB0008091E3000E944B1F8091E2000E944B1F07
:103AC0008FEF0E944B1F0E94E21E88E20E944B1F54
:103AD0008091E3000E944B1F8091E2000E944B1FE7
:103AE0008FEF0E944B1F0E94E21E8091E200909196
:103AF000E30001969093E3008093E2002297A9F6F9
:103B0000FFBEDF91CF911F910F91FF900895CFE5F8
:103B1000D4E0DEBFCDBFF89401E005BF82E085BFF1
:103B2000A698AE9A60E087E190E00E94D81E9E9B26
:103B300008C0AE9805BF15BEE0916000F09161002D
:103B40000995BB9AC39A0E94401F0E94471C0E947D
:103B5000E61E813611F489E528C18134F9F40E940A
:103B6000E61E99279093E3008093E200182F002728
:103B70000E94E61E282F3327202B312B3093E300A1
:103B80002093E2008091E400853709F083C0220F82
:103B9000331F3093E3002093E2007CC0823689F427
:103BA00089E50E94E21E8091E400853729F480E0D7
:103BB0000E94E21E80E8F9C080E00E94E21E80E4DC
:103BC000F4C0823489F40E94E61E9927182F00273A
:103BD0000E94E61E9927082B192B0E94E61E682FCB
:103BE000C8010E94631CE1C0873689F40E94E61E6A
:103BF0009927182F00270E94E61E9927082B192BBA
:103C00000E94E61E682FC8010E94281DA0CF85369D
:103C1000B1F58091E4008537F9F41092E300109239
:103C2000E20043E020E030E0F90140935700E895DE
:103C300007B600FCFDCFC90180589F4F9C0158E397
:103C40008030950788F39093E3008093E20081E150
:103C500080935700E8951EC08B33E1F48CEA0E94F4
:103C60004B1F80E80E944B1F80E00E944B1F80E0AA
:103C70000E944B1F8CE893E20E94F51E0BC0853416
:103C800059F488E190E028E00FB6F894A89581BD3A
:103C90000FBE21BD8DE089C0803539F48091E400EC
:103CA0008B33C1F70E94511FF5CF8C3439F48091CA
:103CB000E4008B3379F70E946D1FECCF803711F44D
:103CC00083E573C0823711F48FEF6FC08E3459F4DF
:103CD0008091E400853711F488E967C08B3309F0DF
:103CE00036CF8EED62C08C3619F40E94E61ED2CF1C
:103CF000843741F485E70E94E21E8BE30E94E21EB6
:103D000080E053C0883731F40E94E61E823031F4DF
:103D1000C398C0CF893721F40E94E61EC39ABACF58
:103D2000843529F40E94E61E8093E400B3CF8335E6
:103D300019F40E944D1C0BCF863529F480E30E94B4
:103D4000E21E87E332C0833711F58091E4008537A6
:103D500041F483E00E94E21E84E90E94E21E8EE1AB
:103D600024C08B3309F0F3CE03E0015080E30E94BE
:103D70004B1F80E00E944B1F802F0E944B1F8FEF34
:103D80000E944B1F0E94E21E002379F7E0CE8D3483
:103D900041F488B398E0892788BB84E70E94E21E3B
:103DA00079CF8B3109F4D3CE8FE30E94E21ECFCEC0
:103DB0009C01832F992780BD29B988E18AB986E8BB
:103DC00080BD08955D9BFECF8CB908955F9BFECFAB
:103DD0008CB199270895FC0160FD60935700C89548
:103DE000802DE395C895902D0895CF93DF93CDB79F
:103DF000DEB722970FB6F894DEBF0FBECDBF039695
:103E000065E070E00E94831F9B0144275527DA017B
:103E1000C90163E0880F991FAA1FBB1F6A95D1F7DC
:103E2000821B930BA40BB50B9C0119821A8289810A
:103E30009A818217930750F489819A810196898328
:103E40009A8389819A8182179307B0F322960FB6DD
:103E5000F894DEBF0FBECDBFDF91CF910895D89803
:103E600088E092E50E94F51E0895D89A88E092E5D0
:103E70000E94F51E08950E94351F0E942F1F08956D
:103E8000C79A87B3806B87BBD09ABE9883E58DB9FC
:103E90000E94351F08958FB9779BFECF8FB1992768
:103EA0000895CF93C7980E943B1FC0E08CEA0E9400
:103EB0004B1F83E50E944B1F8FEF0E944B1F8335E2
:103EC00011F4C1E402C00E943B1F80E00E944B1F1E
:103ED000CF5FC03458F3CF9108950E943B1F0E94DA
:103EE000351F08950E94511F8CEA0E944B1F80E8E5
:103EF0000E944B1F80E00E944B1F80E00E944B1FDE
:103F00000E946D1F0895AA1BBB1B51E107C0AA1F89
:103F1000BB1FA617B70710F0A61BB70B881F991F6A
:0E3F20005A95A9F780959095BC01CD010895A2
:0400000300003800C1
:00000001FF
